:100000000C9446000C9465000C9465000C946500FB
:100010000C9465000C9465000C9465000C946500CC
:100020000C9465000C944C010C9465000C946500D4
:100030000C9465000C9465000C941F010C946500F1
:100040000C94BB000C9465000C9465000C94650046
:100050000C9465000C9465000C9465000C9465008C
:100060000C9465000C9465000C9465000C9465007C
:100070000C9465000C94F3030C94E8020C9429038F
:100080000C9465000C9465000C94650011241FBE4F
:10009000CFEFD0E1DEBFCDBF15E0A0E0B1E0E0E6FC
:1000A000FBE100E00BBF02C007900D92AC35B10739
:1000B000D9F716E0ACE5B5E001C01D92A73AB1074B
:1000C000E1F70E9407080C94AE0D0C9400002091FB
:1000D0006A0530916B0540916C0550916D052417B0
:1000E000350739F490919B0095FF2FC080939C00B9
:1000F00008952F5F3F4F2F7730702417350729F56C
:1001000090919B0095FFFCCF25563A4FF9019081C5
:1001100090939C009FB7F89420916C0530916D05E9
:100120002F5F3F4F2F77307030936D0520936C0514
:1001300020916A0530916B052F5F3F4F2F7730700C
:1001400030936B0520936A059FBFE0916A05F0919B
:100150006B05E556FA4F80832FB7F89480916A05B6
:1001600090916B0502968F77907090936B058093BA
:100170006A052FBF08951F920F920FB60F920BB60C
:100180000F9211242F933F934F935F936F937F931D
:100190008F939F93AF93BF93EF93FF9386E082BFBC
:1001A00080916105882339F080915C05882319F0DE
:1001B0000E94D90502C0109208800E9415068FE0A7
:1001C0008093038020917905213049F0E22FF0E0FF
:1001D000EC59FA4FE081F0E0E65AFE4F05C0E0919D
:1001E0006505F0E0EC59FE4F80818093028080919C
:1001F0005C05882311F41092028081E090E0022EC9
:1002000002C0880F991F0A94E2F7809580930380BB
:100210002F5F237020937905FF91EF91BF91AF91EC
:100220009F918F917F916F915F914F913F912F910E
:100230000F900BBE0F900FBE0F901F9018951F923E
:100240000F920FB60F920BB60F9211248F939F93BC
:10025000EF93FF93E0912501EF3070F4F0E0EE0FA3
:10026000FF1FEA5DFE4F81818DBD80818CBD809135
:10027000650090E1892703C0809165008F7E80939F
:100280006500FF91EF919F918F910F900BBE0F90A2
:100290000FBE0F901F9018951F920F920FB60F92DE
:1002A0000BB60F9211242F933F934F935F936F934D
:1002B0007F938F939F93EF93FF938EEC84BD409138
:1002C0006805509169054115510521F1809173052B
:1002D0008F5F809373058431E8F0109273058091ED
:1002E000740521E030E0082E02C0220F331F0A946B
:1002F000E2F720930480E82FF0E0EE0FFF1FE40FF9
:10030000F51F9081909306808F5F6AE00E94080934
:100310009093740580915C05882309F444C0809112
:100320005D0590915E0518161906ECF58091630540
:100330008823C9F520910001309101012115310573
:1003400091F18091750590917605019690937605CF
:100350008093750540915001509151018417950784
:1003600011F58091770590917805FC01EE5AFE4FCA
:100370004081409309801216130624F40196877079
:10038000907009C00197909378058093770597FF47
:1003900006C087E090E090937805809377051092EF
:1003A000760510927505FF91EF919F918F917F9146
:1003B0006F915F914F913F912F910F900BBE0F90D6
:1003C0000FBE0F901F901895DF93CF9300D000D0F1
:1003D000CDB7DEB71A82198215C01C821B8206C0F7
:1003E0002B813C812F5F3F4F3C832B832B813C81B2
:1003F00042E028353407A4F329813A812F5F3F4F2B
:100400003A83298329813A812817390734F30F90D9
:100410000F900F900F90CF91DF910895DF93CF93BE
:1004200000D000D0CDB7DEB71A82198214C01C826A
:100430001B8206C02B813C812F5F3F4F3C832B8367
:100440002B813C8126303105ACF329813A812F5F25
:100450003F4F3A83298329813A81281739073CF392
:100460000F900F900F900F90CF91DF9108950F9301
:100470001F93CF93DF93082F10917205812F8B7FED
:10048000C1E0D0E8888381E090E00E940E02812FD5
:100490008A7F888381E090E00E940E02187F188393
:1004A00081E090E00E940E021460188381E090E0E9
:1004B0000E940E020093008081E090E00E940E02F4
:1004C0001B7F10937205188381E090E00E940E025A
:1004D000DF91CF911F910F9108950F931F93CF93A9
:1004E000DF93082F109172051B7FC1E0D0E81883BD
:1004F00081E090E00E940E021160188381E090E09C
:100500000E940E021D7F188381E090E00E940E027F
:100510001460188381E090E00E940E020093008036
:1005200081E090E00E940E021B7F109372051883F9
:1005300081E090E00E940E02DF91CF911F910F9118
:10054000089588E30E9437028EE00E94370286E019
:100550000E94370281E00E94370284E690E00E9408
:100560000E0282E00E94370284E690E00E940E02B2
:100570000895EF92FF92CF93DF93E82EE7017E017B
:10058000F92EE70102C00E946D0289918823D9F7F4
:10059000DF91CF91FF90EF900895613019F06230B4
:1005A00041F404C081580E943702089581540E948A
:1005B00037020895CF93DF93982F862FEA01692F92
:1005C0000E94CD02CE010E94B902DF91CF91089521
:1005D0001F920F920FB60F920BB60F9211242F930A
:1005E0003F934F935F936F937F938F939F93AF93BB
:1005F000BF93EF93FF9320916E0530916F05C90172
:1006000001968F7790704091700550917105841715
:10061000950751F040919C00255E394FF9014083C8
:1006200090936F0580936E050E941408FF91EF91DF
:10063000BF91AF919F918F917F916F915F914F91FA
:100640003F912F910F900BBE0F900FBE0F901F90F8
:1006500018951F920F920FB60F920BB60F9211249E
:100660002F933F938F939F93EF93FF9380916C050C
:1006700090916D0520916A0530916B052817390717
:1006800069F0FC01E556FA4F208120939C00019609
:100690008F77907090936D0580936C05FF91EF912B
:1006A0009F918F913F912F910F900BBE0F900FBE96
:1006B0000F901F9018958091700590917105209171
:1006C0006E0530916F058217930731F0855E994F63
:1006D000FC01208130E002C02FEF3FEFC9010895F7
:1006E000809170059091710520916E0530916F0594
:1006F0008217930739F480919B0087FFFCCF80918C
:100700009C001FC0855E994FFC0180819FB7F894C3
:1007100020917005309171052F5F3F4F2F7730701A
:10072000309371052093700520916A0530916B0517
:100730002F5F3F4F2F77307030936B0520936A0502
:100740009FBF90E008951F93F89480E18093640028
:1007500013BE86E082BF14E013BF1EBC1CBC1DBCD0
:1007600091E09EBD15BC93E193BD14BC9AE095BD8C
:10077000EAE8F0E0108292EC9093890097EF909372
:10078000880095E09083EAE9F0E0108280939D0074
:1007900087E6809399001092980088EB808387E623
:1007A00090E060E070E00E943B0980E885BF85E84A
:1007B00087BF10937D0078941F91089581E090E0A9
:1007C0009093010180930001E0915D05F0915E0539
:1007D000EE0FFF1FEA5BFE4F8081918190935101E4
:1007E0008093500108951F920F920FB60F920BB68F
:1007F0000F9211242F933F934F935F936F937F93A7
:100800008F939F93AF93BF93EF93FF9382EC80936B
:10081000890087EF809388000E9427040E949C082B
:100820000E94A0050E94DE03FF91EF91BF91AF915E
:100830009F918F917F916F915F914F913F912F91F8
:100840000F900BBE0F900FBE0F901F9018958091C8
:100850005C058823B9F080915D0590915E05009755
:10086000C1F080916305882349F480917A059091C5
:100870007B05019690937B0580937A0581E08093B8
:100880007C05089510927B0510927A0581E0809393
:100890007C05089580917C05882349F110927C05A0
:1008A00020917A0530917B05C90160E17EE00E94CC
:1008B000140968E572E00E94140960936405ECE392
:1008C000F0E0BF010E94140960936505C901BF01F2
:1008D0000E941409EAE0F0E0BF010E94140960934D
:1008E0006605C901BF010E94140980936705089538
:1008F00020917A0530917B05280F391F30937B05B5
:1009000020937A050895CF93DF93C2E0D1E081E090
:1009100090E061E070E0AE010E94DA0282E090E0D7
:1009200061E070E0AE010E94DA0281E090E061E0F7
:1009300070E04EE651E00E94DA02DF91CF91089517
:10094000CF93DF93C2E0D1E081E090E061E070E01E
:10095000AE010E94DA0282E090E061E070E0AE0158
:100960000E94DA02DF91CF910895CF92DF92EF9249
:10097000FF920F931F93CF93DF930E94A10291E008
:10098000E92EF12CC0E0D0E015C0802F6E2D0E9422
:10099000CD02F60181916F010E946D020F5F1F4F22
:1009A0000131110591F760960894E11CF11CC032E9
:1009B000D10549F085E4C82E84E0D82ECC0EDD1E8A
:1009C00001E010E0E2CFDF91CF911F910F91FF90F6
:1009D000EF90DF90CF90089580917D05882309F4F2
:1009E000AEC010927D0580915C05882309F4A7C0F4
:1009F00080915F05882309F0A2C081E090E061E06A
:100A000070E042E051E00E94DA0281E090E061E0B3
:100A100070E043E751E00E94DA0282E090E061E09A
:100A200070E042E051E00E94DA0280916005882384
:100A300009F46DC080916205823019F1833020F491
:100A4000813009F064C006C0833091F1843009F030
:100A50005EC045C081E090E061E070E042E051E0BE
:100A60000E94DA0282E090E061E070E042E051E052
:100A70000E94DA0281E090E061E070E044E851E039
:100A800044C081E090E061E070E042E051E00E940B
:100A9000DA0282E090E061E070E042E051E00E9422
:100AA000DA0281E090E061E070E043E951E02DC0BE
:100AB00081E090E061E070E042E051E00E94DA0203
:100AC00082E090E061E070E042E051E00E94DA02F2
:100AD00081E090E064E070E040EA51E016C081E01F
:100AE00090E061E070E042E051E00E94DA0282E0D2
:100AF00090E061E070E042E051E00E94DA0281E0C3
:100B000090E062E070E04AEA51E00E94DA028091EF
:100B10006105882341F082E090E060E170E048EBFD
:100B200051E00E94DA0280915F05882341F082E063
:100B300090E060E170E04AEB51E00E94DA02089533
:100B400081E080937D0580915C058823D1F00E942F
:100B5000EC0480915F05882311F00E94B504809118
:100B60006305882311F00E94830480916305882324
:100B700041F482E090E061E070E04AEB51E00E94D5
:100B8000DA0281E062E00E94CD0280915C05882358
:100B900011F40E94A004089580915C05882321F43B
:100BA0001092BD011092BC018091BC01809308801D
:100BB000089580917E058F5F80937E059091BC01A2
:100BC00090930880893C38F08FEF90E09093BD01BE
:100BD0008093BC0108951092BD011092BC0108954C
:100BE00080917E058F5F80937E058091BC0180930C
:100BF0000880089580917E058F5F80937E058091A7
:100C0000BC018093088080916105882329F41092AB
:100C1000BD011092BC010895813031F481E090E073
:100C20009093BD018093BC010895909180059F5FD2
:100C300081E0983C08F480E028EC829F802D11240C
:100C4000981B892F90938005B79B3BC09923C9F5CA
:100C500080915C0590E001968170907080935C05B6
:100C600080916005882311F01092600580915D05E8
:100C7000882311F010925D0580916105882311F0A1
:100C80001092610580916205882311F0109262052F
:100C900080915F05882311F010925F0581E090E05C
:100CA00061E070E042E051E00E94DA0281E090E011
:100CB00061E070E042E051E00E94DA0210926305C8
:100CC000ABC0B69B12C0882381F480915F0590E091
:100CD00001968170907080935F05809161058823F3
:100CE00009F49AC01092610597C0B59B1DC0882376
:100CF00009F092C0809100019091010101969093BA
:100D000001018093000120915D052F5F20935D0517
:100D1000263018F025E020935D05863091050CF40F
:100D20007BC085E090E01EC0B49B21C0882309F001
:100D300073C080910001909101010197909301018E
:100D40008093000120915D05215020935D052223B1
:100D500019F421E020935D05181619060CF45CC007
:100D600081E090E0909301018093000155C0B39B16
:100D70000BC0882349F48091600590E00196817052
:100D80009070809360050DC0B29B0DC0882359F40C
:100D9000809162058F5F8093620510927F05853098
:100DA000D8F181E00EC0B19B0FC0882369F4809117
:100DB000620581508093620510927F05882361F55A
:100DC00084E08093620528C0B09B26C0882321F56B
:100DD00081E090E061E070E042E051E00E94DA02E0
:100DE00081E090E061E070E042E051E00E94DA02D0
:100DF0008091630590E00196817090708093630507
:100E00002091600520938105109282051092600563
:100E1000009711F42093600580916005882321F4E8
:100E200084E680932501089580916205823009F45B
:100E300049C0833030F4882359F0813009F0E6C08E
:100E40000AC0833009F46AC0843009F0DFC0A4C04E
:100E500084E6809325018091830590918405009715
:100E600031F00197909384058093830525C06091AC
:100E70007F056737F0F4E62FF0E0E154FE4F808104
:100E8000982F92959F709093250190E08F709070AD
:100E900044E650E0849F9001859F300D949F300D73
:100EA000112430938405209383056F5F60937F0541
:100EB00003C084E68093250180917F058C3809F07A
:100EC000A5C062C08091830590918405009731F0A0
:100ED00001979093840580938305089560917F0521
:100EE000E62FF0E0EA5CFD4F8081982F92959F708D
:100EF0009093250190E08F70907044E650E0849FBD
:100F00009001859F300D949F300D112430938405FE
:100F1000209383056F5F60937F050895809183051B
:100F200090918405009731F0019790938405809308
:100F3000830525C060917F05613BF0F4E62FF0E06A
:100F4000E95CFC4F8081982F92959F7090932501CA
:100F500090E08F70907044E650E0849F9001859FF0
:100F6000300D949F300D1124309384052093830518
:100F70006F5F60937F0503C084E6809325018091B5
:100F80007F05803B09F042C010927F058091620589
:100F90008F5F809362050895809183059091840509
:100FA000009731F00197909384058093830525C0C5
:100FB00060917F056D34F0F4E62FF0E0E851FC4FCE
:100FC0008081982F92959F709093250190E08F706B
:100FD000907044E650E0849F9001859F300D949F6F
:100FE000300D112430938405209383056F5F609347
:100FF0007F0503C084E68093250180917F058C34B2
:1010000029F410927F0581E08093620508950E9483
:10101000A3030E94A10280915D0590915E050E944C
:10102000DE030E944A04FDCFCF92DF92EF92FF923F
:101030000F931F93CF93DF93CC24C394C6E3D4E0E4
:1010400090E2D92E00E414E080E2E82EF12C67C093
:101050000E94700390939C0680939B068E329105AC
:1010600041F0E0918505F0918605EB5BFB4F8083B5
:101070000FC08AE090E00E949809C09261058091BB
:101080008505909186050197909386058093850547
:1010900080919B0690919C068830910581F400D048
:1010A000EDB7FEB7D283C1830E948609E5E4F4E080
:1010B0000F900F90D19284E0E536F807D9F7809130
:1010C0005F058823A9F480919B0690919C06883047
:1010D000910571F000D000D0EDB7FEB71283018307
:1010E000948383830E9486090F900F900F900F9036
:1010F00080918505909186050196B7010E94280987
:10110000909386058093850580919B0690919C061F
:101110008830910521F410928605109285050E9471
:101120005B0397FF95CFDF91CF911F910F91FF90B8
:10113000EF90DF90CF90089580915C05882339F47B
:1011400087E895E0909369058093680556C0809183
:101150006305882309F051C080915D05823001F15B
:10116000833030F4882361F0813009F050C00FC023
:10117000843041F18430E8F0853009F048C02BC05C
:1011800085E694E090936905809368050895209121
:10119000A10484E1289FC001112487589B4F23C0DC
:1011A0002091A10484E1289FC00111248E559B4FFA
:1011B0001AC02091A10484E1289FC0011124865304
:1011C0009B4F11C02091A10484E1289FC0011124EC
:1011D0008E509B4F08C02091A10484E1289FC0013C
:1011E0001124865E9A4F9093690580936805822F3B
:1011F0008F5F81708093A104089580916305882397
:1012000031F082E495E09093690580936805089534
:10121000991B79E004C0991F961708F0961B881F48
:101220007A95C9F780950895AA1BBB1B51E107C0A9
:10123000AA1FBB1FA617B70710F0A61BB70B881F66
:10124000991F5A95A9F780959095BC01CD010895F5
:1012500097FB092E07260AD077FD04D0E5DF06D0DC
:1012600000201AF4709561957F4F0895F6F79095D8
:1012700081959F4F08950F931F93CF93DF938C0118
:10128000EB01009711F42097C9F181E090E06EE046
:1012900070E00E94AF0BFC019C01009789F180E88F
:1012A0008383209771F0D387C28781E883838091FD
:1012B0009D0690919E06009721F4F0939E06E09380
:1012C0009D0601151105E1F0118700878381826079
:1012D000838380919F069091A006009789F4F093F4
:1012E000A006E0939F068091A1069091A206009728
:1012F00039F4F093A206E093A10602C020E030E0AA
:10130000C901DF91CF911F910F910895DF93CF9382
:10131000CDB7DEB7FE0135966191719180919F0640
:101320009091A006AF010E949F09CF91DF9108958F
:1013300060919F067091A0060E94240D08952F923F
:101340003F924F925F926F927F928F929F92AF9255
:10135000BF92CF92DF92EF92FF920F931F93DF9392
:10136000CF93CDB7DEB72C970FB6F894DEBF0FBE84
:10137000CDBF6C011B018A01FC011782168283819B
:1013800081FFD1C12E010894411C511CF6019381AB
:10139000F10193FD859193FF81911F01882309F449
:1013A000BEC1853239F493FD859193FF81911F0170
:1013B000853229F490E0B6010E94240DE7CFEE2497
:1013C000FF2420E02032B0F48B3269F08C3228F414
:1013D000803251F0833271F40BC08D3239F080339A
:1013E00049F421602CC02260246029C0286027C0F5
:1013F000206125C027FD2CC0382F30533A3098F497
:1014000026FF08C08E2D880FE82EEE0CEE0CE80E9D
:10141000E30E15C08F2D880FF82EFF0CFF0CF80E71
:10142000F30E20620CC08E3221F426FD78C12064B8
:1014300006C08C3611F4206802C0883649F4F101E8
:1014400093FD859193FF81911F01882309F0BACF05
:10145000982F9554933018F09052933028F40C5FE5
:101460001F4FFFE3F9830DC0833631F0833771F0EE
:10147000833509F060C022C0F801808189830E5F46
:101480001F4F420171E0A72EB12C16C062E0662EFC
:10149000712C600E711EF8018080918026FF03C0C0
:1014A0006E2D70E002C06FEF7FEFC4012C870E94A9
:1014B000190D5C0183012C852F7717C052E0652E32
:1014C000712C600E711EF8018080918026FF03C090
:1014D0006E2D70E002C06FEF7FEFC4012C870E9479
:1014E000070D5C012C852068830123FD20C008C006
:1014F00080E290E0B6012C870E94240DFA942C859E
:101500008F2D90E0A816B90698F311C0F40127FDBD
:10151000859127FF81914F0190E0B6012C870E94B1
:10152000240D2C85F110FA940894A108B108A11497
:10153000B10461F7F1C0843611F0893649F527FF0F
:1015400008C0F80160817181828193810C5F1F4F17
:1015500009C0F80160817181882777FD8095982FF7
:101560000E5F1F4F4FE6B42EB22297FF09C0909531
:101570008095709561957F4F8F4F9F4FF0E8BF2A00
:10158000A2012AE030E00E94500D782E741845C068
:10159000853731F43FEEB32EB2222AE030E025C089
:1015A00099EFB92EB2228F36C1F0803720F48835FA
:1015B00009F0B5C00DC0803721F0883709F0AFC001
:1015C00002C020E1B22AB4FE0BC084E0B82A08C0F1
:1015D000B4FE09C0E6E0BE2A06C028E030E005C03F
:1015E00020E130E002C020E132E0B7FE08C0F8019F
:1015F00060817181828193810C5F1F4F07C0F80168
:101600006081718180E090E00E5F1F4FA2010E9417
:10161000500D782E7418FFE7BF22B6FE0BC02EEFD8
:10162000B2227E1438F4B4FE07C0B2FC05C08FEEBF
:10163000B82202C0A72C01C0AE2C8B2D90E0B4FEC6
:101640000DC0FE01E70DF11D2081203319F4E9EEF4
:10165000BE2209C0A394B2FE06C004C08678907072
:10166000009709F0A3948B2C9924B3FC14C0B0FE0E
:101670000FC0AF1428F4E72CEF0CEA18AF2C08C009
:10168000E72C06C080E290E0B6010E94240DA394EE
:10169000AF14C0F304C0AF1410F4FA1801C0FF2453
:1016A00084FE0FC080E390E0B6010E94240D82FE0C
:1016B0001FC081FE03C088E590E010C088E790E07D
:1016C0000DC0C40186789070009791F081FC02C033
:1016D00080E201C08BE2B7FC8DE290E0B6010E948F
:1016E000240D06C080E390E0B6010E94240DEA9428
:1016F0007E14C0F37A94F201E70DF11D808190E031
:10170000B6010E94240D7720A9F706C080E290E080
:10171000B6010E94240DFA94FF20C1F737CEF601DE
:101720002681378102C02FEF3FEFC9012C960FB6FB
:10173000F894DEBF0FBECDBFCF91DF911F910F9107
:10174000FF90EF90DF90CF90BF90AF909F908F90E1
:101750007F906F905F904F903F902F900895EF9201
:10176000FF920F931F93CF93DF93689F8001699F30
:10177000100D789F100D1124C8010E94D40BE82E83
:10178000E7017E01F92EE701209731F08E2D60E010
:1017900070E0A8010E94120DCE01DF91CF911F9140
:1017A0000F91FF90EF900895CF93DF9382309105D2
:1017B00010F482E090E0E091A506F091A60640E0EA
:1017C00050E020E030E026C0608171816817790721
:1017D000E0F06817790781F4828193812115310542
:1017E00031F0D90113969C938E9312972BC090934E
:1017F000A6068093A50626C04115510519F0641769
:10180000750718F4AB01E901DF019F017281638163
:10181000E72FF62F3097C1F64115510501F1481B0E
:10182000590B4430510580F412968D919C91139779
:10183000209719F09B838A8304C09093A606809317
:10184000A506FD01329646C0FD01E40FF51F819308
:1018500091934250504011965C934E933BC020911F
:10186000A3063091A4062115310541F420915805B5
:10187000309159053093A4062093A30620915A0570
:1018800030915B052115310541F42DB73EB74091EC
:10189000560550915705241B350BE091A306F09196
:1018A000A406E217F307A0F42E1B3F0B28173907F5
:1018B00078F0AC014E5F5F4F2417350748F04E0FAC
:1018C0005F1F5093A4064093A3068193919302C097
:1018D000E0E0F0E0CF01DF91CF910895CF93DF9367
:1018E000009709F491C0FC01329713821282609133
:1018F000A5067091A6066115710581F420813181DC
:10190000280F391F8091A3069091A4068217930790
:1019100099F5F093A406E093A30676C0DB0180E07E
:1019200090E002C0CD01D901AE17BF0748F412966E
:101930002D913C91139721153105A1F7CD0121C0BF
:10194000B383A283EF01499159919E01240F351F62
:10195000A217B30779F42D913C911197240F351FED
:101960002E5F3F4F3183208312962D913C91139728
:1019700033832283009729F4F093A606E093A5060B
:1019800043C0DC011396FC93EE9312974D915D9149
:10199000A40FB51FEA17FB0769F420813181240FDA
:1019A000351F2E5F3F4FEC0139832883228133811D
:1019B0003B832A83E0E0F0E002C0FB01BC01DB01D5
:1019C00012968D919C9113970097B9F79B012E5F0A
:1019D0003F4F8D919C911197820F931F4091A306C9
:1019E0005091A4064817590779F4309729F41092BA
:1019F000A6061092A50602C0138212822250304021
:101A00003093A4062093A306DF91CF910895FC01A3
:101A10000590615070400110D8F7809590958E0F19
:101A20009F1F0895DC0101C06D9341505040E0F7C5
:101A30000895FC016150704001900110D8F7809525
:101A400090958E0F9F1F08950F931F93CF93DF9351
:101A50008C01EB018B8181FF1BC082FF0DC02E81A9
:101A60003F818C819D812817390764F4E881F981D1
:101A70000193F983E88306C0E885F985802F0995ED
:101A8000009731F48E819F8101969F838E8302C0DF
:101A90000FEF1FEFC801DF91CF911F910F910895B4
:101AA000FA01AA27283051F1203181F1E8946F938F
:101AB0006E7F6E5F7F4F8F4F9F4FAF4FB1E03ED035
:101AC000B4E03CD0670F781F891F9A1FA11D680FD3
:101AD000791F8A1F911DA11D6A0F711D811D911D06
:101AE000A11D20D009F468943F912AE0269F11247B
:101AF0003019305D3193DEF6CF010895462F4770DF
:101B0000405D4193B3E00FD0C9F7F6CF462F4F7039
:101B1000405D4A3318F0495D31FD4052419302D097
:101B2000A9F7EACFB4E0A69597958795779567953D
:101B3000BA95C9F700976105710508959B01AC013D
:101B40000A2E06945795479537952795BA95C9F764
:101B5000620F731F841F951FA01D0895F894FFCF77
:101B600001002020202020202020202020202020B4
:101B70002020202020202020202020202020202065
:101B800020202020006440C4C4CA95D03BD317D87D
:101B90007EDC5CE023E265E54FE812EC0000BEC0AD
:101BA000FAB848B0A2E9FA007D0053002B001900F2
:101BB000FA0001030206040C08093F065B4F666D3C
:101BC0007C077F67BF86DBCFE6EDFC87FFD75374CA
:101BD0006F7000676F2072756E20746F6765746830
:101BE00065722100536F756E64206F66204D7573AA
:101BF00069630043697479206F66205374617200D1
:101C0000506F77657220757021004C6F6E646F6E37
:101C100020427269646765004D00200001000104E4
:101C20001224022404241422323222123824324490
:101C30002244244434425252423258440212223244
:101C4000425854122292425268642292A2526278FE
:101C500062B2543464447802122232425262727286
:101C6000625242322212022224224244123234426E
:101C700062640222242242441232345262644808CE
:101C8000583828081848085868788878021222328C
:101C9000425262744478122232525454B4627252E4
:101CA00062425224242424B4B4B4B41222325254D2
:101CB00054B462725262425224242424B4B4B42430
:101CC00034343434B25242524252425226222622F4
:101CD0002424B4948484545464B22293837354545B
:101CE0005454B4B4B4B4122232525454B272627224
:101CF0005262425224242424B4B4B4B41222325284
:101D00005454B272627252624252262224422224F7
:101D100024B42434343434B2524252425242522413
:101D2000B222243222242424B29284B28254B252A7
:101D300044B2429642545452425262B4B262625227
:101D40006262B4B26262526272B27262625222B271
:101D500022545452425262B4B26262526222242429
:101D60002424B4B4B4B4545452425262B4B2626241
:101D7000526262B4B26262526272B27262625222A1
:101D8000545452526264646464B4426292827474C1
:101D9000545454B4B4B4B434B252445232B234523F
:101DA0004252423214B232243212B214322242323D
:101DB0000234B252445232B234524252423214B21B
:101DC00032243212B2143224423202343434B43265
:101DD00042324252423242141414B20232320202ED
:101DE0003404343434B43242324252423242141453
:101DF00014B202323202023404B2727252524242BD
:101E000052545454B4B2727252524244320204B424
:101E1000B4B47252B2424272545454B4B272725256
:101E2000524244320204B4B43434444454546464DA
:101E30007464543474645434343444445454646482
:101E400074749494A4A4A4B444544434243448141E
:101E5000243824344844544434243448184824044E
:101E600004B44454443424344814243824344844B6
:101E70005444342434481848240404B444544434A6
:101E800024344814243824344844544434243448F2
:101E90001848240404B43C2D64656C657465210005
:101EA0002564200D0020202020202020202020201C
:101EB0002020202020202020202020202020202022
:101EC0002020202020000300030003000300030063
:101ED0000300030003FF03FF03610360037003A813
:101EE000033003200354038803FF03FF03610360EF
:101EF0000370037003F003200360036003FF03FF1C
:101F00000301610361037003A8033003200354033A
:101F10008803FF03FF036103610370037003F00391
:101F2000200360036003FF03FF0361036103710388
:101F3000A8033003200354038803FF03FF03610356
:101F4000610371037003F003200360036003FF0368
:101F5000FF03610361037103A903300320035403EA
:101F60008803FF03FF036103610371037103F0033F
:101F7000200360036003FF03FF0361036103710338
:101F8000A9033103200354038803FF03FF03610304
:101F9000610371037103F103200360036003FF0316
:101FA000FF03000000007800480078004000400077
:0C1FB0004000000000002000A706000018
:00000001FF
